{
  "_format": "hh-sol-artifact-1",
  "contractName": "App",
  "sourceName": "contracts/App.sol",
  "abi": [
    {
      "inputs": [
        {
          "internalType": "string",
          "name": "name",
          "type": "string"
        },
        {
          "internalType": "string",
          "name": "artileTitle",
          "type": "string"
        },
        {
          "internalType": "string",
          "name": "articleHash",
          "type": "string"
        }
      ],
      "name": "blockArticles",
      "outputs": [],
      "stateMutability": "nonpayable",
      "type": "function"
    },
    {
      "inputs": [
        {
          "internalType": "string",
          "name": "name",
          "type": "string"
        },
        {
          "internalType": "string",
          "name": "note",
          "type": "string"
        }
      ],
      "name": "blockNote",
      "outputs": [],
      "stateMutability": "nonpayable",
      "type": "function"
    },
    {
      "inputs": [
        {
          "internalType": "string",
          "name": "name",
          "type": "string"
        },
        {
          "internalType": "string",
          "name": "pridiction",
          "type": "string"
        }
      ],
      "name": "blockPridiction",
      "outputs": [],
      "stateMutability": "nonpayable",
      "type": "function"
    },
    {
      "inputs": [
        {
          "internalType": "string",
          "name": "name",
          "type": "string"
        },
        {
          "internalType": "string",
          "name": "researchPaperTitle",
          "type": "string"
        },
        {
          "internalType": "string",
          "name": "paperHash",
          "type": "string"
        }
      ],
      "name": "blockResearchPaper",
      "outputs": [],
      "stateMutability": "nonpayable",
      "type": "function"
    },
    {
      "inputs": [],
      "name": "getArticles",
      "outputs": [
        {
          "components": [
            {
              "internalType": "string",
              "name": "name",
              "type": "string"
            },
            {
              "internalType": "string",
              "name": "artileTitle",
              "type": "string"
            },
            {
              "internalType": "string",
              "name": "hash",
              "type": "string"
            },
            {
              "internalType": "address",
              "name": "sender",
              "type": "address"
            },
            {
              "internalType": "uint256",
              "name": "timestamp",
              "type": "uint256"
            },
            {
              "internalType": "uint256",
              "name": "blockNumber",
              "type": "uint256"
            }
          ],
          "internalType": "struct App.Article[]",
          "name": "",
          "type": "tuple[]"
        }
      ],
      "stateMutability": "view",
      "type": "function"
    },
    {
      "inputs": [],
      "name": "getMemos",
      "outputs": [
        {
          "components": [
            {
              "internalType": "string",
              "name": "name",
              "type": "string"
            },
            {
              "internalType": "string",
              "name": "note",
              "type": "string"
            },
            {
              "internalType": "uint256",
              "name": "timestemp",
              "type": "uint256"
            },
            {
              "internalType": "address",
              "name": "from",
              "type": "address"
            },
            {
              "internalType": "uint256",
              "name": "blockNumber",
              "type": "uint256"
            }
          ],
          "internalType": "struct App.Note[]",
          "name": "",
          "type": "tuple[]"
        }
      ],
      "stateMutability": "view",
      "type": "function"
    },
    {
      "inputs": [],
      "name": "getPridictions",
      "outputs": [
        {
          "components": [
            {
              "internalType": "string",
              "name": "name",
              "type": "string"
            },
            {
              "internalType": "string",
              "name": "pridiction",
              "type": "string"
            },
            {
              "internalType": "uint256",
              "name": "timestemp",
              "type": "uint256"
            },
            {
              "internalType": "address",
              "name": "from",
              "type": "address"
            },
            {
              "internalType": "uint256",
              "name": "blockNumber",
              "type": "uint256"
            }
          ],
          "internalType": "struct App.Pridiction[]",
          "name": "",
          "type": "tuple[]"
        }
      ],
      "stateMutability": "view",
      "type": "function"
    },
    {
      "inputs": [],
      "name": "getResearchPaper",
      "outputs": [
        {
          "components": [
            {
              "internalType": "string",
              "name": "name",
              "type": "string"
            },
            {
              "internalType": "string",
              "name": "artileTitle",
              "type": "string"
            },
            {
              "internalType": "string",
              "name": "hash",
              "type": "string"
            },
            {
              "internalType": "address",
              "name": "sender",
              "type": "address"
            },
            {
              "internalType": "uint256",
              "name": "timestamp",
              "type": "uint256"
            },
            {
              "internalType": "uint256",
              "name": "blockNumber",
              "type": "uint256"
            }
          ],
          "internalType": "struct App.Paper[]",
          "name": "",
          "type": "tuple[]"
        }
      ],
      "stateMutability": "view",
      "type": "function"
    }
  ],
  "bytecode": "0x608060405234801561001057600080fd5b50611c96806100206000396000f3fe608060405234801561001057600080fd5b50600436106100885760003560e01c80636529f44a1161005b5780636529f44a14610101578063865c51721461011f5780639305f6571461013d578063f1d0b64a1461015957610088565b806306cf5ae71461008d5780630b9b25cd146100ab57806326099399146100c75780635b0a9a14146100e3575b600080fd5b610095610175565b6040516100a29190611336565b60405180910390f35b6100c560048036038101906100c091906113c7565b610362565b005b6100e160048036038101906100dc9190611448565b6104e1565b005b6100eb6106c2565b6040516100f89190611655565b60405180910390f35b610109610941565b60405161011691906117d0565b60405180910390f35b610127610bc0565b6040516101349190611931565b60405180910390f35b61015760048036038101906101529190611448565b610dad565b005b610173600480360381019061016e91906113c7565b610f8e565b005b60606001805480602002602001604051908101604052809291908181526020016000905b8282101561035957838290600052602060002090600502016040518060a00160405290816000820180546101cc90611982565b80601f01602080910402602001604051908101604052809291908181526020018280546101f890611982565b80156102455780601f1061021a57610100808354040283529160200191610245565b820191906000526020600020905b81548152906001019060200180831161022857829003601f168201915b5050505050815260200160018201805461025e90611982565b80601f016020809104026020016040519081016040528092919081815260200182805461028a90611982565b80156102d75780601f106102ac576101008083540402835291602001916102d7565b820191906000526020600020905b8154815290600101906020018083116102ba57829003601f168201915b50505050508152602001600282015481526020016003820160009054906101000a900473ffffffffffffffffffffffffffffffffffffffff1673ffffffffffffffffffffffffffffffffffffffff1673ffffffffffffffffffffffffffffffffffffffff16815260200160048201548152505081526020019060010190610199565b50505050905090565b60006040518060a0016040528086868080601f016020809104026020016040519081016040528093929190818152602001838380828437600081840152601f19601f82011690508083019250505050505050815260200184848080601f016020809104026020016040519081016040528093929190818152602001838380828437600081840152601f19601f8201169050808301925050505050505081526020014281526020013373ffffffffffffffffffffffffffffffffffffffff16815260200143815250908060018154018082558091505060019003906000526020600020906005020160009091909190915060008201518160000190816104679190611b8e565b50602082015181600101908161047d9190611b8e565b506040820151816002015560608201518160030160006101000a81548173ffffffffffffffffffffffffffffffffffffffff021916908373ffffffffffffffffffffffffffffffffffffffff16021790555060808201518160040155505050505050565b60026040518060c0016040528088888080601f016020809104026020016040519081016040528093929190818152602001838380828437600081840152601f19601f82011690508083019250505050505050815260200186868080601f016020809104026020016040519081016040528093929190818152602001838380828437600081840152601f19601f82011690508083019250505050505050815260200184848080601f016020809104026020016040519081016040528093929190818152602001838380828437600081840152601f19601f8201169050808301925050505050505081526020013373ffffffffffffffffffffffffffffffffffffffff16815260200142815260200143815250908060018154018082558091505060019003906000526020600020906006020160009091909190915060008201518160000190816106309190611b8e565b5060208201518160010190816106469190611b8e565b50604082015181600201908161065c9190611b8e565b5060608201518160030160006101000a81548173ffffffffffffffffffffffffffffffffffffffff021916908373ffffffffffffffffffffffffffffffffffffffff1602179055506080820151816004015560a082015181600501555050505050505050565b60606003805480602002602001604051908101604052809291908181526020016000905b8282101561093857838290600052602060002090600602016040518060c001604052908160008201805461071990611982565b80601f016020809104026020016040519081016040528092919081815260200182805461074590611982565b80156107925780601f1061076757610100808354040283529160200191610792565b820191906000526020600020905b81548152906001019060200180831161077557829003601f168201915b505050505081526020016001820180546107ab90611982565b80601f01602080910402602001604051908101604052809291908181526020018280546107d790611982565b80156108245780601f106107f957610100808354040283529160200191610824565b820191906000526020600020905b81548152906001019060200180831161080757829003601f168201915b5050505050815260200160028201805461083d90611982565b80601f016020809104026020016040519081016040528092919081815260200182805461086990611982565b80156108b65780601f1061088b576101008083540402835291602001916108b6565b820191906000526020600020905b81548152906001019060200180831161089957829003601f168201915b505050505081526020016003820160009054906101000a900473ffffffffffffffffffffffffffffffffffffffff1673ffffffffffffffffffffffffffffffffffffffff1673ffffffffffffffffffffffffffffffffffffffff16815260200160048201548152602001600582015481525050815260200190600101906106e6565b50505050905090565b60606002805480602002602001604051908101604052809291908181526020016000905b82821015610bb757838290600052602060002090600602016040518060c001604052908160008201805461099890611982565b80601f01602080910402602001604051908101604052809291908181526020018280546109c490611982565b8015610a115780601f106109e657610100808354040283529160200191610a11565b820191906000526020600020905b8154815290600101906020018083116109f457829003601f168201915b50505050508152602001600182018054610a2a90611982565b80601f0160208091040260200160405190810160405280929190818152602001828054610a5690611982565b8015610aa35780601f10610a7857610100808354040283529160200191610aa3565b820191906000526020600020905b815481529060010190602001808311610a8657829003601f168201915b50505050508152602001600282018054610abc90611982565b80601f0160208091040260200160405190810160405280929190818152602001828054610ae890611982565b8015610b355780601f10610b0a57610100808354040283529160200191610b35565b820191906000526020600020905b815481529060010190602001808311610b1857829003601f168201915b505050505081526020016003820160009054906101000a900473ffffffffffffffffffffffffffffffffffffffff1673ffffffffffffffffffffffffffffffffffffffff1673ffffffffffffffffffffffffffffffffffffffff1681526020016004820154815260200160058201548152505081526020019060010190610965565b50505050905090565b60606000805480602002602001604051908101604052809291908181526020016000905b82821015610da457838290600052602060002090600502016040518060a0016040529081600082018054610c1790611982565b80601f0160208091040260200160405190810160405280929190818152602001828054610c4390611982565b8015610c905780601f10610c6557610100808354040283529160200191610c90565b820191906000526020600020905b815481529060010190602001808311610c7357829003601f168201915b50505050508152602001600182018054610ca990611982565b80601f0160208091040260200160405190810160405280929190818152602001828054610cd590611982565b8015610d225780601f10610cf757610100808354040283529160200191610d22565b820191906000526020600020905b815481529060010190602001808311610d0557829003601f168201915b50505050508152602001600282015481526020016003820160009054906101000a900473ffffffffffffffffffffffffffffffffffffffff1673ffffffffffffffffffffffffffffffffffffffff1673ffffffffffffffffffffffffffffffffffffffff16815260200160048201548152505081526020019060010190610be4565b50505050905090565b60036040518060c0016040528088888080601f016020809104026020016040519081016040528093929190818152602001838380828437600081840152601f19601f82011690508083019250505050505050815260200186868080601f016020809104026020016040519081016040528093929190818152602001838380828437600081840152601f19601f82011690508083019250505050505050815260200184848080601f016020809104026020016040519081016040528093929190818152602001838380828437600081840152601f19601f8201169050808301925050505050505081526020013373ffffffffffffffffffffffffffffffffffffffff1681526020014281526020014381525090806001815401808255809150506001900390600052602060002090600602016000909190919091506000820151816000019081610efc9190611b8e565b506020820151816001019081610f129190611b8e565b506040820151816002019081610f289190611b8e565b5060608201518160030160006101000a81548173ffffffffffffffffffffffffffffffffffffffff021916908373ffffffffffffffffffffffffffffffffffffffff1602179055506080820151816004015560a082015181600501555050505050505050565b60016040518060a0016040528086868080601f016020809104026020016040519081016040528093929190818152602001838380828437600081840152601f19601f82011690508083019250505050505050815260200184848080601f016020809104026020016040519081016040528093929190818152602001838380828437600081840152601f19601f8201169050808301925050505050505081526020014281526020013373ffffffffffffffffffffffffffffffffffffffff16815260200143815250908060018154018082558091505060019003906000526020600020906005020160009091909190915060008201518160000190816110939190611b8e565b5060208201518160010190816110a99190611b8e565b506040820151816002015560608201518160030160006101000a81548173ffffffffffffffffffffffffffffffffffffffff021916908373ffffffffffffffffffffffffffffffffffffffff16021790555060808201518160040155505050505050565b600081519050919050565b600082825260208201905092915050565b6000819050602082019050919050565b600081519050919050565b600082825260208201905092915050565b60005b83811015611173578082015181840152602081019050611158565b60008484015250505050565b6000601f19601f8301169050919050565b600061119b82611139565b6111a58185611144565b93506111b5818560208601611155565b6111be8161117f565b840191505092915050565b6000819050919050565b6111dc816111c9565b82525050565b600073ffffffffffffffffffffffffffffffffffffffff82169050919050565b600061120d826111e2565b9050919050565b61121d81611202565b82525050565b600060a08301600083015184820360008601526112408282611190565b9150506020830151848203602086015261125a8282611190565b915050604083015161126f60408601826111d3565b5060608301516112826060860182611214565b50608083015161129560808601826111d3565b508091505092915050565b60006112ac8383611223565b905092915050565b6000602082019050919050565b60006112cc8261110d565b6112d68185611118565b9350836020820285016112e885611129565b8060005b85811015611324578484038952815161130585826112a0565b9450611310836112b4565b925060208a019950506001810190506112ec565b50829750879550505050505092915050565b6000602082019050818103600083015261135081846112c1565b905092915050565b600080fd5b600080fd5b600080fd5b600080fd5b600080fd5b60008083601f84011261138757611386611362565b5b8235905067ffffffffffffffff8111156113a4576113a3611367565b5b6020830191508360018202830111156113c0576113bf61136c565b5b9250929050565b600080600080604085870312156113e1576113e0611358565b5b600085013567ffffffffffffffff8111156113ff576113fe61135d565b5b61140b87828801611371565b9450945050602085013567ffffffffffffffff81111561142e5761142d61135d565b5b61143a87828801611371565b925092505092959194509250565b6000806000806000806060878903121561146557611464611358565b5b600087013567ffffffffffffffff8111156114835761148261135d565b5b61148f89828a01611371565b9650965050602087013567ffffffffffffffff8111156114b2576114b161135d565b5b6114be89828a01611371565b9450945050604087013567ffffffffffffffff8111156114e1576114e061135d565b5b6114ed89828a01611371565b92509250509295509295509295565b600081519050919050565b600082825260208201905092915050565b6000819050602082019050919050565b600060c08301600083015184820360008601526115458282611190565b9150506020830151848203602086015261155f8282611190565b915050604083015184820360408601526115798282611190565b915050606083015161158e6060860182611214565b5060808301516115a160808601826111d3565b5060a08301516115b460a08601826111d3565b508091505092915050565b60006115cb8383611528565b905092915050565b6000602082019050919050565b60006115eb826114fc565b6115f58185611507565b93508360208202850161160785611518565b8060005b85811015611643578484038952815161162485826115bf565b945061162f836115d3565b925060208a0199505060018101905061160b565b50829750879550505050505092915050565b6000602082019050818103600083015261166f81846115e0565b905092915050565b600081519050919050565b600082825260208201905092915050565b6000819050602082019050919050565b600060c08301600083015184820360008601526116c08282611190565b915050602083015184820360208601526116da8282611190565b915050604083015184820360408601526116f48282611190565b91505060608301516117096060860182611214565b50608083015161171c60808601826111d3565b5060a083015161172f60a08601826111d3565b508091505092915050565b600061174683836116a3565b905092915050565b6000602082019050919050565b600061176682611677565b6117708185611682565b93508360208202850161178285611693565b8060005b858110156117be578484038952815161179f858261173a565b94506117aa8361174e565b925060208a01995050600181019050611786565b50829750879550505050505092915050565b600060208201905081810360008301526117ea818461175b565b905092915050565b600081519050919050565b600082825260208201905092915050565b6000819050602082019050919050565b600060a083016000830151848203600086015261183b8282611190565b915050602083015184820360208601526118558282611190565b915050604083015161186a60408601826111d3565b50606083015161187d6060860182611214565b50608083015161189060808601826111d3565b508091505092915050565b60006118a7838361181e565b905092915050565b6000602082019050919050565b60006118c7826117f2565b6118d181856117fd565b9350836020820285016118e38561180e565b8060005b8581101561191f5784840389528151611900858261189b565b945061190b836118af565b925060208a019950506001810190506118e7565b50829750879550505050505092915050565b6000602082019050818103600083015261194b81846118bc565b905092915050565b7f4e487b7100000000000000000000000000000000000000000000000000000000600052602260045260246000fd5b6000600282049050600182168061199a57607f821691505b6020821081036119ad576119ac611953565b5b50919050565b7f4e487b7100000000000000000000000000000000000000000000000000000000600052604160045260246000fd5b60008190508160005260206000209050919050565b60006020601f8301049050919050565b600082821b905092915050565b600060088302611a447fffffffffffffffffffffffffffffffffffffffffffffffffffffffffffffffff82611a07565b611a4e8683611a07565b95508019841693508086168417925050509392505050565b6000819050919050565b6000611a8b611a86611a81846111c9565b611a66565b6111c9565b9050919050565b6000819050919050565b611aa583611a70565b611ab9611ab182611a92565b848454611a14565b825550505050565b600090565b611ace611ac1565b611ad9818484611a9c565b505050565b5b81811015611afd57611af2600082611ac6565b600181019050611adf565b5050565b601f821115611b4257611b13816119e2565b611b1c846119f7565b81016020851015611b2b578190505b611b3f611b37856119f7565b830182611ade565b50505b505050565b600082821c905092915050565b6000611b6560001984600802611b47565b1980831691505092915050565b6000611b7e8383611b54565b9150826002028217905092915050565b611b9782611139565b67ffffffffffffffff811115611bb057611baf6119b3565b5b611bba8254611982565b611bc5828285611b01565b600060209050601f831160018114611bf85760008415611be6578287015190505b611bf08582611b72565b865550611c58565b601f198416611c06866119e2565b60005b82811015611c2e57848901518255600182019150602085019450602081019050611c09565b86831015611c4b5784890151611c47601f891682611b54565b8355505b6001600288020188555050505b50505050505056fea26469706673582212209b9061ff7c4425105963db39525695a46e33c8f99a04eeed2185f33630207add64736f6c63430008110033",
  "linkReferences": {},
  "deployedLinkReferences": {}
}