{
  "_format": "hh-sol-artifact-1",
  "contractName": "App",
  "sourceName": "contracts/App.sol",
  "abi": [
    {
      "inputs": [
        {
          "internalType": "string",
          "name": "name",
          "type": "string"
        },
        {
          "internalType": "string",
          "name": "fileName",
          "type": "string"
        },
        {
          "internalType": "string",
          "name": "size",
          "type": "string"
        },
        {
          "internalType": "string",
          "name": "lastModified",
          "type": "string"
        },
        {
          "internalType": "string",
          "name": "articleHash",
          "type": "string"
        }
      ],
      "name": "blockArticles",
      "outputs": [],
      "stateMutability": "nonpayable",
      "type": "function"
    },
    {
      "inputs": [
        {
          "internalType": "string",
          "name": "name",
          "type": "string"
        },
        {
          "internalType": "string",
          "name": "note",
          "type": "string"
        }
      ],
      "name": "blockNote",
      "outputs": [],
      "stateMutability": "nonpayable",
      "type": "function"
    },
    {
      "inputs": [
        {
          "internalType": "string",
          "name": "name",
          "type": "string"
        },
        {
          "internalType": "string",
          "name": "pridiction",
          "type": "string"
        }
      ],
      "name": "blockPridiction",
      "outputs": [],
      "stateMutability": "nonpayable",
      "type": "function"
    },
    {
      "inputs": [
        {
          "internalType": "string",
          "name": "name",
          "type": "string"
        },
        {
          "internalType": "string",
          "name": "fileName",
          "type": "string"
        },
        {
          "internalType": "string",
          "name": "size",
          "type": "string"
        },
        {
          "internalType": "string",
          "name": "lastModified",
          "type": "string"
        },
        {
          "internalType": "string",
          "name": "paperHash",
          "type": "string"
        }
      ],
      "name": "blockResearchPaper",
      "outputs": [],
      "stateMutability": "nonpayable",
      "type": "function"
    },
    {
      "inputs": [],
      "name": "getArticles",
      "outputs": [
        {
          "components": [
            {
              "internalType": "string",
              "name": "name",
              "type": "string"
            },
            {
              "internalType": "string",
              "name": "fileName",
              "type": "string"
            },
            {
              "internalType": "string",
              "name": "size",
              "type": "string"
            },
            {
              "internalType": "string",
              "name": "lastModified",
              "type": "string"
            },
            {
              "internalType": "string",
              "name": "hash",
              "type": "string"
            },
            {
              "internalType": "address",
              "name": "sender",
              "type": "address"
            },
            {
              "internalType": "uint256",
              "name": "timestamp",
              "type": "uint256"
            },
            {
              "internalType": "uint256",
              "name": "blockNumber",
              "type": "uint256"
            }
          ],
          "internalType": "struct App.Article[]",
          "name": "",
          "type": "tuple[]"
        }
      ],
      "stateMutability": "view",
      "type": "function"
    },
    {
      "inputs": [],
      "name": "getMemos",
      "outputs": [
        {
          "components": [
            {
              "internalType": "string",
              "name": "name",
              "type": "string"
            },
            {
              "internalType": "string",
              "name": "note",
              "type": "string"
            },
            {
              "internalType": "uint256",
              "name": "timestemp",
              "type": "uint256"
            },
            {
              "internalType": "address",
              "name": "from",
              "type": "address"
            },
            {
              "internalType": "uint256",
              "name": "blockNumber",
              "type": "uint256"
            }
          ],
          "internalType": "struct App.Note[]",
          "name": "",
          "type": "tuple[]"
        }
      ],
      "stateMutability": "view",
      "type": "function"
    },
    {
      "inputs": [],
      "name": "getPridictions",
      "outputs": [
        {
          "components": [
            {
              "internalType": "string",
              "name": "name",
              "type": "string"
            },
            {
              "internalType": "string",
              "name": "pridiction",
              "type": "string"
            },
            {
              "internalType": "uint256",
              "name": "timestemp",
              "type": "uint256"
            },
            {
              "internalType": "address",
              "name": "from",
              "type": "address"
            },
            {
              "internalType": "uint256",
              "name": "blockNumber",
              "type": "uint256"
            }
          ],
          "internalType": "struct App.Pridiction[]",
          "name": "",
          "type": "tuple[]"
        }
      ],
      "stateMutability": "view",
      "type": "function"
    },
    {
      "inputs": [],
      "name": "getResearchPaper",
      "outputs": [
        {
          "components": [
            {
              "internalType": "string",
              "name": "name",
              "type": "string"
            },
            {
              "internalType": "string",
              "name": "fileName",
              "type": "string"
            },
            {
              "internalType": "string",
              "name": "size",
              "type": "string"
            },
            {
              "internalType": "string",
              "name": "lastModified",
              "type": "string"
            },
            {
              "internalType": "string",
              "name": "hash",
              "type": "string"
            },
            {
              "internalType": "address",
              "name": "sender",
              "type": "address"
            },
            {
              "internalType": "uint256",
              "name": "timestamp",
              "type": "uint256"
            },
            {
              "internalType": "uint256",
              "name": "blockNumber",
              "type": "uint256"
            }
          ],
          "internalType": "struct App.Paper[]",
          "name": "",
          "type": "tuple[]"
        }
      ],
      "stateMutability": "view",
      "type": "function"
    }
  ],
  "bytecode": "0x608060405234801561001057600080fd5b5061213d806100206000396000f3fe608060405234801561001057600080fd5b50600436106100885760003560e01c8063865c51721161005b578063865c517214610103578063ca45f93414610121578063ea9bd6fa1461013d578063f1d0b64a1461015957610088565b806306cf5ae71461008d5780630b9b25cd146100ab5780635b0a9a14146100c75780636529f44a146100e5575b600080fd5b610095610175565b6040516100a2919061170a565b60405180910390f35b6100c560048036038101906100c0919061179b565b610362565b005b6100cf6104e1565b6040516100dc91906119aa565b60405180910390f35b6100ed610885565b6040516100fa9190611b5a565b60405180910390f35b61010b610c29565b6040516101189190611cbb565b60405180910390f35b61013b60048036038101906101369190611cdd565b610e16565b005b61015760048036038101906101529190611cdd565b6110bc565b005b610173600480360381019061016e919061179b565b611362565b005b60606001805480602002602001604051908101604052809291908181526020016000905b8282101561035957838290600052602060002090600502016040518060a00160405290816000820180546101cc90611e29565b80601f01602080910402602001604051908101604052809291908181526020018280546101f890611e29565b80156102455780601f1061021a57610100808354040283529160200191610245565b820191906000526020600020905b81548152906001019060200180831161022857829003601f168201915b5050505050815260200160018201805461025e90611e29565b80601f016020809104026020016040519081016040528092919081815260200182805461028a90611e29565b80156102d75780601f106102ac576101008083540402835291602001916102d7565b820191906000526020600020905b8154815290600101906020018083116102ba57829003601f168201915b50505050508152602001600282015481526020016003820160009054906101000a900473ffffffffffffffffffffffffffffffffffffffff1673ffffffffffffffffffffffffffffffffffffffff1673ffffffffffffffffffffffffffffffffffffffff16815260200160048201548152505081526020019060010190610199565b50505050905090565b60006040518060a0016040528086868080601f016020809104026020016040519081016040528093929190818152602001838380828437600081840152601f19601f82011690508083019250505050505050815260200184848080601f016020809104026020016040519081016040528093929190818152602001838380828437600081840152601f19601f8201169050808301925050505050505081526020014281526020013373ffffffffffffffffffffffffffffffffffffffff16815260200143815250908060018154018082558091505060019003906000526020600020906005020160009091909190915060008201518160000190816104679190612035565b50602082015181600101908161047d9190612035565b506040820151816002015560608201518160030160006101000a81548173ffffffffffffffffffffffffffffffffffffffff021916908373ffffffffffffffffffffffffffffffffffffffff16021790555060808201518160040155505050505050565b60606003805480602002602001604051908101604052809291908181526020016000905b8282101561087c57838290600052602060002090600802016040518061010001604052908160008201805461053990611e29565b80601f016020809104026020016040519081016040528092919081815260200182805461056590611e29565b80156105b25780601f10610587576101008083540402835291602001916105b2565b820191906000526020600020905b81548152906001019060200180831161059557829003601f168201915b505050505081526020016001820180546105cb90611e29565b80601f01602080910402602001604051908101604052809291908181526020018280546105f790611e29565b80156106445780601f1061061957610100808354040283529160200191610644565b820191906000526020600020905b81548152906001019060200180831161062757829003601f168201915b5050505050815260200160028201805461065d90611e29565b80601f016020809104026020016040519081016040528092919081815260200182805461068990611e29565b80156106d65780601f106106ab576101008083540402835291602001916106d6565b820191906000526020600020905b8154815290600101906020018083116106b957829003601f168201915b505050505081526020016003820180546106ef90611e29565b80601f016020809104026020016040519081016040528092919081815260200182805461071b90611e29565b80156107685780601f1061073d57610100808354040283529160200191610768565b820191906000526020600020905b81548152906001019060200180831161074b57829003601f168201915b5050505050815260200160048201805461078190611e29565b80601f01602080910402602001604051908101604052809291908181526020018280546107ad90611e29565b80156107fa5780601f106107cf576101008083540402835291602001916107fa565b820191906000526020600020905b8154815290600101906020018083116107dd57829003601f168201915b505050505081526020016005820160009054906101000a900473ffffffffffffffffffffffffffffffffffffffff1673ffffffffffffffffffffffffffffffffffffffff1673ffffffffffffffffffffffffffffffffffffffff1681526020016006820154815260200160078201548152505081526020019060010190610505565b50505050905090565b60606002805480602002602001604051908101604052809291908181526020016000905b82821015610c205783829060005260206000209060080201604051806101000160405290816000820180546108dd90611e29565b80601f016020809104026020016040519081016040528092919081815260200182805461090990611e29565b80156109565780601f1061092b57610100808354040283529160200191610956565b820191906000526020600020905b81548152906001019060200180831161093957829003601f168201915b5050505050815260200160018201805461096f90611e29565b80601f016020809104026020016040519081016040528092919081815260200182805461099b90611e29565b80156109e85780601f106109bd576101008083540402835291602001916109e8565b820191906000526020600020905b8154815290600101906020018083116109cb57829003601f168201915b50505050508152602001600282018054610a0190611e29565b80601f0160208091040260200160405190810160405280929190818152602001828054610a2d90611e29565b8015610a7a5780601f10610a4f57610100808354040283529160200191610a7a565b820191906000526020600020905b815481529060010190602001808311610a5d57829003601f168201915b50505050508152602001600382018054610a9390611e29565b80601f0160208091040260200160405190810160405280929190818152602001828054610abf90611e29565b8015610b0c5780601f10610ae157610100808354040283529160200191610b0c565b820191906000526020600020905b815481529060010190602001808311610aef57829003601f168201915b50505050508152602001600482018054610b2590611e29565b80601f0160208091040260200160405190810160405280929190818152602001828054610b5190611e29565b8015610b9e5780601f10610b7357610100808354040283529160200191610b9e565b820191906000526020600020905b815481529060010190602001808311610b8157829003601f168201915b505050505081526020016005820160009054906101000a900473ffffffffffffffffffffffffffffffffffffffff1673ffffffffffffffffffffffffffffffffffffffff1673ffffffffffffffffffffffffffffffffffffffff16815260200160068201548152602001600782015481525050815260200190600101906108a9565b50505050905090565b60606000805480602002602001604051908101604052809291908181526020016000905b82821015610e0d57838290600052602060002090600502016040518060a0016040529081600082018054610c8090611e29565b80601f0160208091040260200160405190810160405280929190818152602001828054610cac90611e29565b8015610cf95780601f10610cce57610100808354040283529160200191610cf9565b820191906000526020600020905b815481529060010190602001808311610cdc57829003601f168201915b50505050508152602001600182018054610d1290611e29565b80601f0160208091040260200160405190810160405280929190818152602001828054610d3e90611e29565b8015610d8b5780601f10610d6057610100808354040283529160200191610d8b565b820191906000526020600020905b815481529060010190602001808311610d6e57829003601f168201915b50505050508152602001600282015481526020016003820160009054906101000a900473ffffffffffffffffffffffffffffffffffffffff1673ffffffffffffffffffffffffffffffffffffffff1673ffffffffffffffffffffffffffffffffffffffff16815260200160048201548152505081526020019060010190610c4d565b50505050905090565b60026040518061010001604052808c8c8080601f016020809104026020016040519081016040528093929190818152602001838380828437600081840152601f19601f8201169050808301925050505050505081526020018a8a8080601f016020809104026020016040519081016040528093929190818152602001838380828437600081840152601f19601f82011690508083019250505050505050815260200188888080601f016020809104026020016040519081016040528093929190818152602001838380828437600081840152601f19601f82011690508083019250505050505050815260200186868080601f016020809104026020016040519081016040528093929190818152602001838380828437600081840152601f19601f82011690508083019250505050505050815260200184848080601f016020809104026020016040519081016040528093929190818152602001838380828437600081840152601f19601f8201169050808301925050505050505081526020013373ffffffffffffffffffffffffffffffffffffffff1681526020014281526020014381525090806001815401808255809150506001900390600052602060002090600802016000909190919091506000820151816000019081610ffa9190612035565b5060208201518160010190816110109190612035565b5060408201518160020190816110269190612035565b50606082015181600301908161103c9190612035565b5060808201518160040190816110529190612035565b5060a08201518160050160006101000a81548173ffffffffffffffffffffffffffffffffffffffff021916908373ffffffffffffffffffffffffffffffffffffffff16021790555060c0820151816006015560e08201518160070155505050505050505050505050565b60036040518061010001604052808c8c8080601f016020809104026020016040519081016040528093929190818152602001838380828437600081840152601f19601f8201169050808301925050505050505081526020018a8a8080601f016020809104026020016040519081016040528093929190818152602001838380828437600081840152601f19601f82011690508083019250505050505050815260200188888080601f016020809104026020016040519081016040528093929190818152602001838380828437600081840152601f19601f82011690508083019250505050505050815260200186868080601f016020809104026020016040519081016040528093929190818152602001838380828437600081840152601f19601f82011690508083019250505050505050815260200184848080601f016020809104026020016040519081016040528093929190818152602001838380828437600081840152601f19601f8201169050808301925050505050505081526020013373ffffffffffffffffffffffffffffffffffffffff16815260200142815260200143815250908060018154018082558091505060019003906000526020600020906008020160009091909190915060008201518160000190816112a09190612035565b5060208201518160010190816112b69190612035565b5060408201518160020190816112cc9190612035565b5060608201518160030190816112e29190612035565b5060808201518160040190816112f89190612035565b5060a08201518160050160006101000a81548173ffffffffffffffffffffffffffffffffffffffff021916908373ffffffffffffffffffffffffffffffffffffffff16021790555060c0820151816006015560e08201518160070155505050505050505050505050565b60016040518060a0016040528086868080601f016020809104026020016040519081016040528093929190818152602001838380828437600081840152601f19601f82011690508083019250505050505050815260200184848080601f016020809104026020016040519081016040528093929190818152602001838380828437600081840152601f19601f8201169050808301925050505050505081526020014281526020013373ffffffffffffffffffffffffffffffffffffffff16815260200143815250908060018154018082558091505060019003906000526020600020906005020160009091909190915060008201518160000190816114679190612035565b50602082015181600101908161147d9190612035565b506040820151816002015560608201518160030160006101000a81548173ffffffffffffffffffffffffffffffffffffffff021916908373ffffffffffffffffffffffffffffffffffffffff16021790555060808201518160040155505050505050565b600081519050919050565b600082825260208201905092915050565b6000819050602082019050919050565b600081519050919050565b600082825260208201905092915050565b60005b8381101561154757808201518184015260208101905061152c565b60008484015250505050565b6000601f19601f8301169050919050565b600061156f8261150d565b6115798185611518565b9350611589818560208601611529565b61159281611553565b840191505092915050565b6000819050919050565b6115b08161159d565b82525050565b600073ffffffffffffffffffffffffffffffffffffffff82169050919050565b60006115e1826115b6565b9050919050565b6115f1816115d6565b82525050565b600060a08301600083015184820360008601526116148282611564565b9150506020830151848203602086015261162e8282611564565b915050604083015161164360408601826115a7565b50606083015161165660608601826115e8565b50608083015161166960808601826115a7565b508091505092915050565b600061168083836115f7565b905092915050565b6000602082019050919050565b60006116a0826114e1565b6116aa81856114ec565b9350836020820285016116bc856114fd565b8060005b858110156116f857848403895281516116d98582611674565b94506116e483611688565b925060208a019950506001810190506116c0565b50829750879550505050505092915050565b600060208201905081810360008301526117248184611695565b905092915050565b600080fd5b600080fd5b600080fd5b600080fd5b600080fd5b60008083601f84011261175b5761175a611736565b5b8235905067ffffffffffffffff8111156117785761177761173b565b5b60208301915083600182028301111561179457611793611740565b5b9250929050565b600080600080604085870312156117b5576117b461172c565b5b600085013567ffffffffffffffff8111156117d3576117d2611731565b5b6117df87828801611745565b9450945050602085013567ffffffffffffffff81111561180257611801611731565b5b61180e87828801611745565b925092505092959194509250565b600081519050919050565b600082825260208201905092915050565b6000819050602082019050919050565b60006101008301600083015184820360008601526118668282611564565b915050602083015184820360208601526118808282611564565b9150506040830151848203604086015261189a8282611564565b915050606083015184820360608601526118b48282611564565b915050608083015184820360808601526118ce8282611564565b91505060a08301516118e360a08601826115e8565b5060c08301516118f660c08601826115a7565b5060e083015161190960e08601826115a7565b508091505092915050565b60006119208383611848565b905092915050565b6000602082019050919050565b60006119408261181c565b61194a8185611827565b93508360208202850161195c85611838565b8060005b8581101561199857848403895281516119798582611914565b945061198483611928565b925060208a01995050600181019050611960565b50829750879550505050505092915050565b600060208201905081810360008301526119c48184611935565b905092915050565b600081519050919050565b600082825260208201905092915050565b6000819050602082019050919050565b6000610100830160008301518482036000860152611a168282611564565b91505060208301518482036020860152611a308282611564565b91505060408301518482036040860152611a4a8282611564565b91505060608301518482036060860152611a648282611564565b91505060808301518482036080860152611a7e8282611564565b91505060a0830151611a9360a08601826115e8565b5060c0830151611aa660c08601826115a7565b5060e0830151611ab960e08601826115a7565b508091505092915050565b6000611ad083836119f8565b905092915050565b6000602082019050919050565b6000611af0826119cc565b611afa81856119d7565b935083602082028501611b0c856119e8565b8060005b85811015611b485784840389528151611b298582611ac4565b9450611b3483611ad8565b925060208a01995050600181019050611b10565b50829750879550505050505092915050565b60006020820190508181036000830152611b748184611ae5565b905092915050565b600081519050919050565b600082825260208201905092915050565b6000819050602082019050919050565b600060a0830160008301518482036000860152611bc58282611564565b91505060208301518482036020860152611bdf8282611564565b9150506040830151611bf460408601826115a7565b506060830151611c0760608601826115e8565b506080830151611c1a60808601826115a7565b508091505092915050565b6000611c318383611ba8565b905092915050565b6000602082019050919050565b6000611c5182611b7c565b611c5b8185611b87565b935083602082028501611c6d85611b98565b8060005b85811015611ca95784840389528151611c8a8582611c25565b9450611c9583611c39565b925060208a01995050600181019050611c71565b50829750879550505050505092915050565b60006020820190508181036000830152611cd58184611c46565b905092915050565b60008060008060008060008060008060a08b8d031215611d0057611cff61172c565b5b60008b013567ffffffffffffffff811115611d1e57611d1d611731565b5b611d2a8d828e01611745565b9a509a505060208b013567ffffffffffffffff811115611d4d57611d4c611731565b5b611d598d828e01611745565b985098505060408b013567ffffffffffffffff811115611d7c57611d7b611731565b5b611d888d828e01611745565b965096505060608b013567ffffffffffffffff811115611dab57611daa611731565b5b611db78d828e01611745565b945094505060808b013567ffffffffffffffff811115611dda57611dd9611731565b5b611de68d828e01611745565b92509250509295989b9194979a5092959850565b7f4e487b7100000000000000000000000000000000000000000000000000000000600052602260045260246000fd5b60006002820490506001821680611e4157607f821691505b602082108103611e5457611e53611dfa565b5b50919050565b7f4e487b7100000000000000000000000000000000000000000000000000000000600052604160045260246000fd5b60008190508160005260206000209050919050565b60006020601f8301049050919050565b600082821b905092915050565b600060088302611eeb7fffffffffffffffffffffffffffffffffffffffffffffffffffffffffffffffff82611eae565b611ef58683611eae565b95508019841693508086168417925050509392505050565b6000819050919050565b6000611f32611f2d611f288461159d565b611f0d565b61159d565b9050919050565b6000819050919050565b611f4c83611f17565b611f60611f5882611f39565b848454611ebb565b825550505050565b600090565b611f75611f68565b611f80818484611f43565b505050565b5b81811015611fa457611f99600082611f6d565b600181019050611f86565b5050565b601f821115611fe957611fba81611e89565b611fc384611e9e565b81016020851015611fd2578190505b611fe6611fde85611e9e565b830182611f85565b50505b505050565b600082821c905092915050565b600061200c60001984600802611fee565b1980831691505092915050565b60006120258383611ffb565b9150826002028217905092915050565b61203e8261150d565b67ffffffffffffffff81111561205757612056611e5a565b5b6120618254611e29565b61206c828285611fa8565b600060209050601f83116001811461209f576000841561208d578287015190505b6120978582612019565b8655506120ff565b601f1984166120ad86611e89565b60005b828110156120d5578489015182556001820191506020850194506020810190506120b0565b868310156120f257848901516120ee601f891682611ffb565b8355505b6001600288020188555050505b50505050505056fea2646970667358221220f34fd3de3fc01d48575f752dee245bd4fd198bd6faa812d9d1da097b64194ce164736f6c63430008110033",
  "linkReferences": {},
  "deployedLinkReferences": {}
}