{
  "_format": "hh-sol-artifact-1",
  "contractName": "App",
  "sourceName": "contracts/App.sol",
  "abi": [
    {
      "inputs": [
        {
          "internalType": "string",
          "name": "name",
          "type": "string"
        },
        {
          "internalType": "string",
          "name": "note",
          "type": "string"
        }
      ],
      "name": "blockNote",
      "outputs": [],
      "stateMutability": "nonpayable",
      "type": "function"
    },
    {
      "inputs": [],
      "name": "getMemos",
      "outputs": [
        {
          "components": [
            {
              "internalType": "string",
              "name": "name",
              "type": "string"
            },
            {
              "internalType": "string",
              "name": "note",
              "type": "string"
            },
            {
              "internalType": "uint256",
              "name": "timestemp",
              "type": "uint256"
            },
            {
              "internalType": "address",
              "name": "from",
              "type": "address"
            },
            {
              "internalType": "uint256",
              "name": "blockNumber",
              "type": "uint256"
            }
          ],
          "internalType": "struct App.Note[]",
          "name": "",
          "type": "tuple[]"
        }
      ],
      "stateMutability": "view",
      "type": "function"
    }
  ],
  "bytecode": "0x608060405234801561001057600080fd5b50610a5f806100206000396000f3fe608060405234801561001057600080fd5b50600436106100365760003560e01c80630b9b25cd1461003b578063865c517214610057575b600080fd5b61005560048036038101906100509190610450565b610075565b005b61005f6101f4565b60405161006c91906106fa565b60405180910390f35b60006040518060a0016040528086868080601f016020809104026020016040519081016040528093929190818152602001838380828437600081840152601f19601f82011690508083019250505050505050815260200184848080601f016020809104026020016040519081016040528093929190818152602001838380828437600081840152601f19601f8201169050808301925050505050505081526020014281526020013373ffffffffffffffffffffffffffffffffffffffff168152602001438152509080600181540180825580915050600190039060005260206000209060050201600090919091909150600082015181600001908161017a9190610957565b5060208201518160010190816101909190610957565b506040820151816002015560608201518160030160006101000a81548173ffffffffffffffffffffffffffffffffffffffff021916908373ffffffffffffffffffffffffffffffffffffffff16021790555060808201518160040155505050505050565b60606000805480602002602001604051908101604052809291908181526020016000905b828210156103d857838290600052602060002090600502016040518060a001604052908160008201805461024b9061077a565b80601f01602080910402602001604051908101604052809291908181526020018280546102779061077a565b80156102c45780601f10610299576101008083540402835291602001916102c4565b820191906000526020600020905b8154815290600101906020018083116102a757829003601f168201915b505050505081526020016001820180546102dd9061077a565b80601f01602080910402602001604051908101604052809291908181526020018280546103099061077a565b80156103565780601f1061032b57610100808354040283529160200191610356565b820191906000526020600020905b81548152906001019060200180831161033957829003601f168201915b50505050508152602001600282015481526020016003820160009054906101000a900473ffffffffffffffffffffffffffffffffffffffff1673ffffffffffffffffffffffffffffffffffffffff1673ffffffffffffffffffffffffffffffffffffffff16815260200160048201548152505081526020019060010190610218565b50505050905090565b600080fd5b600080fd5b600080fd5b600080fd5b600080fd5b60008083601f8401126104105761040f6103eb565b5b8235905067ffffffffffffffff81111561042d5761042c6103f0565b5b602083019150836001820283011115610449576104486103f5565b5b9250929050565b6000806000806040858703121561046a576104696103e1565b5b600085013567ffffffffffffffff811115610488576104876103e6565b5b610494878288016103fa565b9450945050602085013567ffffffffffffffff8111156104b7576104b66103e6565b5b6104c3878288016103fa565b925092505092959194509250565b600081519050919050565b600082825260208201905092915050565b6000819050602082019050919050565b600081519050919050565b600082825260208201905092915050565b60005b8381101561053757808201518184015260208101905061051c565b60008484015250505050565b6000601f19601f8301169050919050565b600061055f826104fd565b6105698185610508565b9350610579818560208601610519565b61058281610543565b840191505092915050565b6000819050919050565b6105a08161058d565b82525050565b600073ffffffffffffffffffffffffffffffffffffffff82169050919050565b60006105d1826105a6565b9050919050565b6105e1816105c6565b82525050565b600060a08301600083015184820360008601526106048282610554565b9150506020830151848203602086015261061e8282610554565b91505060408301516106336040860182610597565b50606083015161064660608601826105d8565b5060808301516106596080860182610597565b508091505092915050565b600061067083836105e7565b905092915050565b6000602082019050919050565b6000610690826104d1565b61069a81856104dc565b9350836020820285016106ac856104ed565b8060005b858110156106e857848403895281516106c98582610664565b94506106d483610678565b925060208a019950506001810190506106b0565b50829750879550505050505092915050565b600060208201905081810360008301526107148184610685565b905092915050565b7f4e487b7100000000000000000000000000000000000000000000000000000000600052604160045260246000fd5b7f4e487b7100000000000000000000000000000000000000000000000000000000600052602260045260246000fd5b6000600282049050600182168061079257607f821691505b6020821081036107a5576107a461074b565b5b50919050565b60008190508160005260206000209050919050565b60006020601f8301049050919050565b600082821b905092915050565b60006008830261080d7fffffffffffffffffffffffffffffffffffffffffffffffffffffffffffffffff826107d0565b61081786836107d0565b95508019841693508086168417925050509392505050565b6000819050919050565b600061085461084f61084a8461058d565b61082f565b61058d565b9050919050565b6000819050919050565b61086e83610839565b61088261087a8261085b565b8484546107dd565b825550505050565b600090565b61089761088a565b6108a2818484610865565b505050565b5b818110156108c6576108bb60008261088f565b6001810190506108a8565b5050565b601f82111561090b576108dc816107ab565b6108e5846107c0565b810160208510156108f4578190505b610908610900856107c0565b8301826108a7565b50505b505050565b600082821c905092915050565b600061092e60001984600802610910565b1980831691505092915050565b6000610947838361091d565b9150826002028217905092915050565b610960826104fd565b67ffffffffffffffff8111156109795761097861071c565b5b610983825461077a565b61098e8282856108ca565b600060209050601f8311600181146109c157600084156109af578287015190505b6109b9858261093b565b865550610a21565b601f1984166109cf866107ab565b60005b828110156109f7578489015182556001820191506020850194506020810190506109d2565b86831015610a145784890151610a10601f89168261091d565b8355505b6001600288020188555050505b50505050505056fea26469706673582212202fc512d130d11f842af5782fd3091babb79a523f2a48ed5451b9af11fdeb1c0264736f6c63430008110033",
  "linkReferences": {},
  "deployedLinkReferences": {}
}