{
  "_format": "hh-sol-artifact-1",
  "contractName": "notes",
  "sourceName": "contracts/DJots.sol",
  "abi": [
    {
      "inputs": [],
      "stateMutability": "nonpayable",
      "type": "constructor"
    },
    {
      "inputs": [
        {
          "internalType": "string",
          "name": "name",
          "type": "string"
        },
        {
          "internalType": "string",
          "name": "note",
          "type": "string"
        }
      ],
      "name": "blockNote",
      "outputs": [],
      "stateMutability": "payable",
      "type": "function"
    },
    {
      "inputs": [],
      "name": "getMemos",
      "outputs": [
        {
          "components": [
            {
              "internalType": "string",
              "name": "name",
              "type": "string"
            },
            {
              "internalType": "string",
              "name": "note",
              "type": "string"
            },
            {
              "internalType": "uint256",
              "name": "timestemp",
              "type": "uint256"
            },
            {
              "internalType": "address",
              "name": "from",
              "type": "address"
            },
            {
              "internalType": "uint256",
              "name": "blockNumber",
              "type": "uint256"
            }
          ],
          "internalType": "struct notes.Memo[]",
          "name": "",
          "type": "tuple[]"
        }
      ],
      "stateMutability": "view",
      "type": "function"
    }
  ],
  "bytecode": "0x608060405234801561001057600080fd5b5033600160006101000a81548173ffffffffffffffffffffffffffffffffffffffff021916908373ffffffffffffffffffffffffffffffffffffffff160217905550610ac8806100616000396000f3fe6080604052600436106100295760003560e01c80630b9b25cd1461002e578063865c51721461004a575b600080fd5b610048600480360381019061004391906104b9565b610075565b005b34801561005657600080fd5b5061005f61025d565b60405161006c9190610763565b60405180910390f35b600160009054906101000a900473ffffffffffffffffffffffffffffffffffffffff1673ffffffffffffffffffffffffffffffffffffffff166108fc349081150290604051600060405180830381858888f193505050501580156100dd573d6000803e3d6000fd5b5060006040518060a0016040528086868080601f016020809104026020016040519081016040528093929190818152602001838380828437600081840152601f19601f82011690508083019250505050505050815260200184848080601f016020809104026020016040519081016040528093929190818152602001838380828437600081840152601f19601f8201169050808301925050505050505081526020014281526020013373ffffffffffffffffffffffffffffffffffffffff16815260200143815250908060018154018082558091505060019003906000526020600020906005020160009091909190915060008201518160000190816101e391906109c0565b5060208201518160010190816101f991906109c0565b506040820151816002015560608201518160030160006101000a81548173ffffffffffffffffffffffffffffffffffffffff021916908373ffffffffffffffffffffffffffffffffffffffff16021790555060808201518160040155505050505050565b60606000805480602002602001604051908101604052809291908181526020016000905b8282101561044157838290600052602060002090600502016040518060a00160405290816000820180546102b4906107e3565b80601f01602080910402602001604051908101604052809291908181526020018280546102e0906107e3565b801561032d5780601f106103025761010080835404028352916020019161032d565b820191906000526020600020905b81548152906001019060200180831161031057829003601f168201915b50505050508152602001600182018054610346906107e3565b80601f0160208091040260200160405190810160405280929190818152602001828054610372906107e3565b80156103bf5780601f10610394576101008083540402835291602001916103bf565b820191906000526020600020905b8154815290600101906020018083116103a257829003601f168201915b50505050508152602001600282015481526020016003820160009054906101000a900473ffffffffffffffffffffffffffffffffffffffff1673ffffffffffffffffffffffffffffffffffffffff1673ffffffffffffffffffffffffffffffffffffffff16815260200160048201548152505081526020019060010190610281565b50505050905090565b600080fd5b600080fd5b600080fd5b600080fd5b600080fd5b60008083601f84011261047957610478610454565b5b8235905067ffffffffffffffff81111561049657610495610459565b5b6020830191508360018202830111156104b2576104b161045e565b5b9250929050565b600080600080604085870312156104d3576104d261044a565b5b600085013567ffffffffffffffff8111156104f1576104f061044f565b5b6104fd87828801610463565b9450945050602085013567ffffffffffffffff8111156105205761051f61044f565b5b61052c87828801610463565b925092505092959194509250565b600081519050919050565b600082825260208201905092915050565b6000819050602082019050919050565b600081519050919050565b600082825260208201905092915050565b60005b838110156105a0578082015181840152602081019050610585565b60008484015250505050565b6000601f19601f8301169050919050565b60006105c882610566565b6105d28185610571565b93506105e2818560208601610582565b6105eb816105ac565b840191505092915050565b6000819050919050565b610609816105f6565b82525050565b600073ffffffffffffffffffffffffffffffffffffffff82169050919050565b600061063a8261060f565b9050919050565b61064a8161062f565b82525050565b600060a083016000830151848203600086015261066d82826105bd565b9150506020830151848203602086015261068782826105bd565b915050604083015161069c6040860182610600565b5060608301516106af6060860182610641565b5060808301516106c26080860182610600565b508091505092915050565b60006106d98383610650565b905092915050565b6000602082019050919050565b60006106f98261053a565b6107038185610545565b93508360208202850161071585610556565b8060005b85811015610751578484038952815161073285826106cd565b945061073d836106e1565b925060208a01995050600181019050610719565b50829750879550505050505092915050565b6000602082019050818103600083015261077d81846106ee565b905092915050565b7f4e487b7100000000000000000000000000000000000000000000000000000000600052604160045260246000fd5b7f4e487b7100000000000000000000000000000000000000000000000000000000600052602260045260246000fd5b600060028204905060018216806107fb57607f821691505b60208210810361080e5761080d6107b4565b5b50919050565b60008190508160005260206000209050919050565b60006020601f8301049050919050565b600082821b905092915050565b6000600883026108767fffffffffffffffffffffffffffffffffffffffffffffffffffffffffffffffff82610839565b6108808683610839565b95508019841693508086168417925050509392505050565b6000819050919050565b60006108bd6108b86108b3846105f6565b610898565b6105f6565b9050919050565b6000819050919050565b6108d7836108a2565b6108eb6108e3826108c4565b848454610846565b825550505050565b600090565b6109006108f3565b61090b8184846108ce565b505050565b5b8181101561092f576109246000826108f8565b600181019050610911565b5050565b601f8211156109745761094581610814565b61094e84610829565b8101602085101561095d578190505b61097161096985610829565b830182610910565b50505b505050565b600082821c905092915050565b600061099760001984600802610979565b1980831691505092915050565b60006109b08383610986565b9150826002028217905092915050565b6109c982610566565b67ffffffffffffffff8111156109e2576109e1610785565b5b6109ec82546107e3565b6109f7828285610933565b600060209050601f831160018114610a2a5760008415610a18578287015190505b610a2285826109a4565b865550610a8a565b601f198416610a3886610814565b60005b82811015610a6057848901518255600182019150602085019450602081019050610a3b565b86831015610a7d5784890151610a79601f891682610986565b8355505b6001600288020188555050505b50505050505056fea26469706673582212204dab7c0df8387fc53db2de79843bb8475b51c5018e900de8eaea201aba0cedad64736f6c63430008110033",
  "linkReferences": {},
  "deployedLinkReferences": {}
}